:020000040800F2
:100000000000011091030008D5030008D503000883
:10001000D5030008D5030008D50300080000000040
:10002000000000000000000000000000D5030008F0
:10003000D503000800000000D5030008D503000820
:10004000D5030008D5030008D5030008D503000830
:10005000D5030008D5030008D5030008D503000820
:10006000D5030008D5030008D5030008D503000810
:10007000D5030008D5030008D5030008D503000800
:10008000D5030008D5030008D5030008D5030008F0
:10009000D5030008D5030008D5030008D5030008E0
:1000A000D5030008D5030008D5030008D5030008D0
:1000B000D5030008D5030008D5030008D5030008C0
:1000C000D5030008D5030008D5030008D5030008B0
:1000D000D5030008D5030008D5030008D5030008A0
:1000E000D5030008D5030008D5030008D503000890
:1000F000D5030008D5030008D5030008D503000880
:10010000D5030008D5030008D5030008D50300086F
:10011000D5030008D5030008D5030008D50300085F
:10012000D5030008D5030008D5030008D50300084F
:10013000D5030008D5030008D5030008D50300083F
:10014000D5030008D5030008D5030008D50300082F
:10015000D5030008D5030008D5030008D50300081F
:10016000D5030008D5030008D5030008D50300080F
:10017000D5030008D5030008D5030008D5030008FF
:08018000D5030008D5030008B7
:1001880010B5054C237833B9044B13B10448AFF3C9
:1001980000800123237010BD000000200000000033
:1001A800D8030008084B10B51BB108480849AFF33D
:1001B80000800848036803B910BD074B002BFBD02B
:1001C800BDE81040184700BF00000000D803000831
:1001D80004000020000000200000000013B50420E7
:1001E800012100F0C5F8012303248DF804300848E4
:1001F8000094002369468DF806308DF805408DF887
:10020800073000F07DF80248214600F0AFF8FEE71D
:1002180000080240344B1A68002142F001021A60BB
:1002280099601A6822F0847222F480321A602F4A88
:100238005A601A6882B022F480221A60D96000914C
:1002480001911A6842F480321A60274B1A6802F446
:1002580000320192009A01320092019A1AB9009A6A
:10026800B2F5A06FF1D11B6813F4003318BF012356
:100278000193019B012B05D01D4B4FF000629A6042
:1002880002B07047184B1B491A6C42F080521A642E
:100298000A6842F480420A609A689A609A6842F44E
:1002A80000429A609A6842F4A0529A60124A5A60D0
:1002B8001A6842F080721A6019680B4A8901FBD5E6
:1002C8000E4B40F205611960936823F003039360B5
:1002D800936843F002039360034B9B6803F00C039D
:1002E800082BF9D1C8E700BF0038024010300024BD
:1002F80000ED00E00070004008544007003C024058
:10030800F0B5002201230C6893401C409C4229D17F
:10031800550003230668AB40DB431E4006600E7998
:100328000768AE403E4306600E79013E012E11D8A3
:1003380086681E4086604E798768AE403E43866078
:10034800466826EA040444608C7946689440A4B25E
:1003580034434460C4682340C360CB79C468AB406D
:100368002343C3600132102ACCD1F0BD41837047CA
:10037800044B1A6B09B1104301E022EA000018632C
:10038800704700BF00380240002103E00A4B5B5869
:100398004350043109480A4B42189A42F6D3094A95
:1003A80002E0002342F8043B074B9A42F9D3FFF7D7
:1003B80031FFFFF713FF7047F80300080000002023
:1003C80000000020000000201C000020FEE70000C4
:1003D800F8B500BFF8BC08BC9E467047F8B500BF2A
:0803E800F8BC08BC9E467047FA
:0403F000AD01000853
:0403F4008901000873
:04000005080003915B
:00000001FF
